:020000040800F2
:100000007806002091010008230800080508000870
:100010001F08000899050008030D000800000000F3
:10002000000000000000000000000000D9090008E6
:100030009D05000800000000A9080008C50A000886
:10004000AB010008AB010008290B0008AB01000858
:10005000AB010008AB010008AB010008AB010008D0
:10006000AB010008AB010008AB010008AB010008C0
:10007000AB010008AB010008AB010008AB010008B0
:10008000AB010008AB010008AB010008AB010008A0
:10009000AB010008AB010008AB010008AB01000890
:1000A000AB010008AB010008AB010008AB01000880
:1000B000AB010008AB010008AB010008AB01000870
:1000C000AB010008AB010008AB010008AB01000860
:1000D000AB0100082D0B0008AB010008AB010008C4
:1000E000AB010008AB010008AB01000800F002F80A
:1000F00000F03FF80AA090E8000C82448344AAF183
:100100000107DA4501D100F034F8AFF2090EBAE880
:100110000F0013F0010F18BFFB1A43F0010318473B
:100120001017000030170000103A24BF78C878C1BB
:10013000FAD8520724BF30C830C144BF04680C60ED
:10014000704700000023002400250026103A28BF35
:1001500078C1FBD8520728BF30C148BF0B60704739
:10016000632900F0D080002070471FB51FBD10B577
:1001700010BD00F0D4F81146FFF7F7FF00F00CFEB9
:1001800000F0F2F803B4FFF7F2FF03BC00F0F6F85A
:100190000948804709480047FEE7FEE7FEE7FEE71B
:1001A000FEE7FEE7FEE7FEE7FEE7FEE70448054957
:1001B000054A064B70470000C90A0008ED00000818
:1001C00078000020780600207802002078020020C5
:1001D0000FB41CB5074B06AA7B44694600900598EE
:1001E00000F06FF80020694600F07EF81CBC5DF856
:1001F00014FB00000D0100002DE9F0410E460446FD
:10020000002020622046E168884730B3252805D0C9
:10021000D4E901219047206A401CF2E7E1682046BA
:1002200000278847050018D0A5F14100192802D8F9
:1002300020354FF400673246294620462760FFF7F5
:100240008FFF40B1012804D0F61D26F007060836BE
:10025000D8E7361DD6E72846DAE7206ABDE8F08100
:1002600070B50C460546012A05D02878800600D5D1
:10027000EA69002302E0012305E05B1C934202D2FD
:10028000E05C0028F9D1A869E618C01AA861286ABC
:10029000184428622846AFF3008004E0D5E9012124
:1002A00014F8010B9047B442F8D32846AFF300800E
:1002B00070BD70477047704701694A1C0261087839
:1002C000704700B58FB0CDE9013100210591054996
:1002D0007944CDE9031011466846FFF78DFF0FB052
:1002E00000BD0000E5FFFFFF0A6802F8010B0A608D
:1002F000704710B5436913B1AFF3008001E0FFF719
:10030000AFFF012010BD127800F124010A70002215
:100310004A700122EDE711684FF0FF32E9E77546B8
:1003200000F028F8AE4605006946534620F0070065
:10033000854618B020B5FFF739FFBDE820404FF0E3
:1003400000064FF000074FF000084FF0000B21F0BF
:100350000701AC46ACE8C009ACE8C009ACE8C0098C
:10036000ACE8C0098D4670470446AFF300802046D4
:10037000FFF708FF004870471400002001491820CB
:10038000ABBEFEE726000200704721B1826842F052
:100390000102826003E0826822F0010282607047FD
:1003A00010B504461248844208D10121401500F0DE
:1003B00099FA0021601500F095FA17E00D48844283
:1003C00008D10121001500F08DFA0021201500F060
:1003D00089FA0BE00848844208D10121C80300F0E3
:1003E00081FA00214FF4004000F07CFA10BD0000BB
:1003F0000024014000280140003C0140014600204B
:100400008A6802F004020AB1012000E0002070476F
:100410000146C86C80B270470246002013680B404A
:100420000BB1012000E000207047014600208A68DF
:1004300002F008020AB1012000E00020704700002D
:1004400030B502460020002350680F4C20400D7943
:100450000C6844EA05242043506090680B4C20400F
:10046000D1E902542C434D7944EA4504204390607D
:10047000D06A20F470000C7C641EE4B2234340EA8E
:100480000350D06230BD0000FFFEF0FFFDF7F1FF2A
:10049000F0B504460D4600200021092D11DDE0686D
:1004A000A5F10A0606EB4607072606FA07F1884378
:1004B000A5F10A0606EB460603FA06F10843E060DA
:1004C0000CE0206905EB4507072606FA07F188438B
:1004D00005EB450603FA06F108432061072A0FDA07
:1004E000606B561E06EB86071F2606FA07F1884347
:1004F000561E06EB860605FA06F10843606322E005
:100500000D2A0FDA206BD61F06EB86071F2606FA88
:1005100007F18843D61F06EB860605FA06F1084365
:10052000206310E0E06AA2F10D0606EB86071F26A5
:1005300006FA07F18843A2F10D0606EB860605FAD6
:1005400006F10843E062F0BD816841F00801816076
:10055000704721B1826842F4A002826003E08268A1
:1005600022F4A00282607047816841F0040181603A
:100570007047000030B10749096841F40001054A9D
:10058000116005E00349096821F40001014A116086
:10059000704700000824014000BFFEE770472DE9C6
:1005A000F04104460B4615464FF000081AE020784B
:1005B0000A2190FBF1F0C6B2304600F025F9187020
:1005C0005B1C20780A2190FBF1F201FB1200C7B2FC
:1005D000384600F019F918705B1C641C08F1010022
:1005E00000F0FF08A845E2DBBDE8F0814FF4964338
:1005F00000FB03F2002100E0491C9142FCD370474C
:100600002DE9F041024600250026002000230024A9
:10061000002791F803C00CF00F0591F803C00CF00F
:10062000100CBCF1000F03D091F802C04CEA050594
:1006300091F800C0BCF1000F31D0146800202BE00D
:100640004FF0010C0CFA00F3B1F800C00CEA0306FD
:100650009E4220D183004FF00F0C0CFA03F7BC43ED
:1006600005FA03FC4CEA040491F803C0BCF1280F1E
:1006700006D14FF0010C0CFA00FCC2F814C00AE0DD
:1006800091F803C0BCF1480F05D14FF0010C0CFAF2
:1006900000FCC2F810C0401C0828D1D31460B1F887
:1006A00000C0BCF1FF0F34DD546800202EE000F1E3
:1006B000080C4FF0010808FA0CF3B1F800C00CEA7E
:1006C00003069E4221D183004FF00F0C0CFA03F772
:1006D000BC4305FA03FC4CEA040491F803C0BCF1E6
:1006E000280F05D100F1080C08FA0CF8C2F81480A4
:1006F00091F803C0BCF1480F07D100F1080C4FF08E
:10070000010808FA0CF8C2F81080401C0828CED363
:100710005460BDE8F081000010B5044607230122B3
:1007200021460948FFF7B4FE01210748FFF711FFF2
:1007300000BF02210448FFF76FFE0028F9D00248ED
:10074000FFF766FE10BD0000002401402DE9F041D6
:1007500007460C460025002608E03846FFF7DCFF78
:1007600005440520FFF742FF701CC6B2A642F4DB29
:10077000B5FBF4F080B2BDE8F08100002DE9F05F38
:1007800032211020FFF7E2FF8346584600F0F6FFC3
:10079000804600F0C7FF06464FF06632124B00F06D
:1007A000D9FD04460D4622462B461048104900F05C
:1007B000CFFE80460F4A104B00F044FC0646002254
:1007C0000E4B00F097FB04460D4600220C4B2046D2
:1007D000294600F0BFFD064600F08CFD0FFA80FAB6
:1007E0005046BDE8F09F000066664A3FE17A14AECD
:1007F00047E1F63F22FDF675E09C713F000039406D
:100800000000594000BFFEE701460A2903DA01F162
:100810003002D0B202E001F13702D0B2704700BF1F
:10082000FEE7704770B5002100230F22C47804B39F
:10083000154C246804F4E064C4F5E064210AC1F1B5
:100840000403CA40447804FA03F184781440214335
:1008500009010E4C0678A155047804F01F05012407
:10086000AC4005786D11AD0005F1E025C5F80041FB
:1008700009E0047804F01F050124AC40044D06781B
:10088000761145F8264070BD0CED00E000E400E074
:1008900080E100E002490143024A11607047000014
:1008A0000000FA050CED00E0704700000146002052
:1008B000034A506820F440400843506070470000ED
:1008C0000010024029B1064A92690243044B9A6122
:1008D00004E0034A92698243014B9A617047000029
:1008E0000010024029B1064AD2680243044BDA6084
:1008F00004E0034AD2688243014BDA60704700008B
:100900000010024030B500210022002400232D4DAC
:100910006D6805F00C0121B1042905D0082923D107
:1009200005E0294D056022E0274D05601FE0254DBB
:100930006D6805F47012234D6D6805F4803402254E
:1009400005EB92421CB9214D554305600BE01D4D4E
:100950006D6805F400351DB11C4D5543056002E07E
:10096000194D5543056002E0174D056000BF00BFFB
:10097000144D6D6805F0F0010909154D6B5C0568B3
:10098000DD4045600F4D6D6805F4E061090A104DCA
:100990006B5C4568DD4085600A4D6D6805F460510B
:1009A000C90A0B4D6B5C4568DD40C560054D6D683F
:1009B00005F44041890B074D6B5CC568B5FBF3F549
:1009C000056130BD0010024000127A0000093D00B0
:1009D0000000002010000020704710B500F002F861
:1009E00010BD00000CB50020019000903348006855
:1009F00040F480303149086000BF3048006800F49E
:100A0000003000900198401C0190009818B901989E
:100A1000B0F5A06FF1D12948006800F4003010B1A2
:100A20000120009001E0002000900098012843D1AF
:100A30002348006840F0100021490860084600681B
:100A400020F0070008600846006840F002000860D7
:100A50001A48406819494860084640684860084696
:100A6000406840F4806048600846406820F47C108C
:100A700048600846406840F4E8104860084600684E
:100A800040F08070086000BF0C48006800F0007003
:100A90000028F9D00948406820F003000749486061
:100AA0000846406840F00200486000BF03484068C4
:100AB00000F00C000828F9D10CBD00000010024025
:100AC000002002407047000010B51348006840F055
:100AD00001001149086008464068104908400E4965
:100AE0004860084600680E4908400B4908600846FF
:100AF000006820F4802008600846406820F4FE006A
:100B000048604FF41F008860FFF767FF4FF00060F8
:100B10000449086010BD0000001002400000FFF80A
:100B2000FFFFF6FE08ED00E07047000010B540F250
:100B30002551044800F021F818B1024800F0D8F817
:100B4000044610BD0038014021B1828942F40052B0
:100B5000828104E082894DF6FF731A4082817047DA
:100B600002460020B1F5007F00D100BF13880B4082
:100B70000BB1012000E00020704770B50246002450
:100B800000230025002040F66A16B14200D100BFC4
:100B9000C1F3421501F01F03012606FA03F3012DEC
:100BA00002D19689334006E0022D02D1168A3340E5
:100BB00001E0968A33400C12012606FA04F41688E6
:100BC000344013B10CB1012000E0002070BDF0B53D
:100BD0000346002400260025002040F66A17B9428B
:100BE00000D100BF1846C1F3421401F01F060127CF
:100BF00007FA06F5012C01D10C3004E0022C01D1DA
:100C0000103000E014301AB107682F43076002E08B
:100C10000768AF430760F0BD2DE9F04786B0054691
:100C20000E460024A24600BFA1460027B08900B1AD
:100C300000BF2F462C8A4CF6FF700440F088044316
:100C40002C82AC894EF6F3100440B08831890843F9
:100C5000718908430443AC81AC8A4FF6FF400440DD
:100C6000B0890443AC8201A8FFF74CFE1F488742BD
:100C700002D1DDF810A001E0DDF80CA0A88900F495
:100C8000004040B10AEBCA0000EB0A10316849008D
:100C9000B0FBF1F807E00AEBCA0000EB0A1031687C
:100CA0008900B0FBF1F86420B8FBF0F004012009E2
:100CB000642101FB1089A88900F4004040B1322072
:100CC00000EBC900B0FBF1F000F00700044308E0BE
:100CD000322000EB09106421B0FBF1F000F00F00AE
:100CE00004432C8106B0BDE8F087000000380140C5
:100CF00001468888C0F308007047C1F3080282806B
:100D0000704700BFFEE7000000B585B001214FF439
:100D10000170FFF7D7FD4FF40040FFF7C7FD1848FB
:100D2000FFF73EFB002000908DF804008DF80500D1
:100D30004FF4602002900020039001208DF81000F5
:100D400069460F48FFF77CFB0120FFF713FC0121E8
:100D50000B48FFF71AFB0A48FFF7F6FB00BF0848ED
:100D6000FFF763FB0028FAD10548FFF7FDFB00BF42
:100D70000348FFF743FB0028FAD105B000BD00008F
:100D8000002401404FF4964300FB03F2002100E0F1
:100D9000491C9142FCD3704788B000F039F8FFF746
:100DA000B3FF2BE0FFF7EAFC0446642094FBF0F06D
:100DB000C0B28DF80C00642094FBF0F100FB1140F0
:100DC000C0B28DF80D00022207A903A8FFF7E7FBC8
:100DD0009DF81F009DF81E10CDE900109DF81D30F4
:100DE0009DF81C2006A104A8FFF7F2F904A9074802
:100DF00000F06AF840F22620FFF7C4FFD2E70000B7
:100E0000256325632E25632563430A0000380140CE
:100E100000B587B001210420FFF754FD01218803AC
:100E2000FFF750FD4FF40070ADF8180018208DF852
:100E30001B0003208DF81A0006A92148FFF7E0FBEC
:100E40004FF48060ADF8180004208DF81B000320DB
:100E50008DF81A0006A91A48FFF7D2FB4FF4E0609C
:100E6000FFF718FD25208DF8040001208DF80700FC
:100E700000208DF8050001208DF8060001A8FFF77D
:100E8000D1FC4FF4E13002900020ADF80C00ADF839
:100E90000E00ADF81000ADF814000C20ADF81200F3
:100EA00002A90848FFF7B8FE012240F22551054883
:100EB000FFF78DFE01210348FFF746FE07B000BD96
:100EC000000801400038014070B506460C46002578
:100ED0000CE0615D3046FFF710FF00BF8021304617
:100EE000FFF73EFE0028F9D0681CC5B2605D0028FF
:100EF000EFD170BD10B591EA030F48BF83F00043F6
:100F000000F12E83841A71EB030C05D2121943EB06
:100F10000C03001B61EB0C01DFF824E14FEA1154D4
:100F2000A4EB135C1EEA430F18BF9EEA445F73D024
:100F300023EA0E03DCF1200E21EA045143F480136E
:100F400032D322FA0CFE10EB0E0023FA0CFE41EB1A
:100F50000E01CCF1200E03FA0EFE10EB0E0051F143
:100F60000001B1F5801FCCF1200E32D201EB04510B
:100F700012FA0EF2BDE8104058BF7047401C38BF4F
:100F80005FEA420218BF7047002814BF20F001003A
:100F900041F100014FEA410313F5001F38BF7047CC
:100FA000A1F1C04100F0CEBA012A43EB0302ACF13B
:100FB000200CDCF11F0E32BF4FF0000E23FA0CF3B1
:100FC00010EB030041EB0451B4EB115FD0D0A1EB67
:100FD000045101F5801149085FEA300001EB04512A
:100FE0000ED350F1000038BF12FA0EFE08D1BDE852
:100FF0001040C9E7401C38BF5FEA4202CAD1C3E7CC
:10100000BDE810404FEA410313F5001F38BF704799
:10101000A1F1C04100F096BA9EEA445F08D011EAFF
:101020005E0FBDE8104004BF01F000410020704792
:10103000BDE8104070B500F037FA00BF64FBBE3E5B
:101040000000E0FF2DE9C04130B4DFF8A0C23CEA67
:10105000111418BF3CEA131400F0EC8081EA030578
:101060001CEA111444EAD57418BF1CEA131500F0E9
:10107000C780A4EB05044FF0004545EAC12145EACD
:10108000C32341EA505143EA525304F17F74994219
:1010900004F500344FEAC0204FEAC22208BF904254
:1010A00000F09C804FEA13650FF24016765D4FEA20
:1010B000134506FB05F7C7F1807706FB07F74FEAF4
:1010C000D737A7FB03687642C8F58038A7FB06CE62
:1010D00038BFA8F1010807FB08E64FF0000EA6FB99
:1010E000028CE6FB03CEDCF1000CCEF1004E38BFE3
:1010F000AEF1010EA6FB0C584FF000074FF00005B3
:10110000E6FB0E87A1FB08C6A0FB07CE16EB0E067A
:1011100045F10005E1FB076515F1E04E7EBFA4F542
:1011200080345FEA46066D4116F1800745F10005FF
:101130004FEA17274FEA066647EA0567A6F1DE463B
:10114000B6F1805F4FEA15251FD9384624F0010C0F
:1011500005EBC471BCF1FE6F01EB0C1102D8F0BCC1
:10116000BDE8008124425CBF01F5801E9EEAC47F79
:1011700002D4F0BCBDE80081244238D4F0BCA1F117
:10118000C041BDE8004100F0DDB94FEAD22242EA99
:1011900043524FEAD323A7FB02864FEAD02040EA0E
:1011A000415007FB03661EEA0E0F4FEAD12105FBF3
:1011B000026658BFA6EB0056B6EB00564FEA520E39
:1011C0004EEAC37E18EB0E0E56EB530EBDD518EB50
:1011D00002085E417F1C55F10005B6E74FF480150B
:1011E0004FF000074FF000064FF00008ADE7F0BCED
:1011F0004FF0000001F1C04101F00041BDE8008165
:1012000011EA0C1F0CEA131500D00CE013EA0C1FB6
:1012100000F025804FF00000F0BC81EA030101F0EE
:101220000041BDE80081F0BCBDE8004181EA030156
:1012300000F088B9F0BCBDE8004170B500F034F9A9
:10124000097EFC3E00F007B881EA03014FF0000080
:1012500001F00041704781EA030100F073B9F0BC6E
:10126000BDE800414FF0000021497047FFFDFBF948
:10127000F7F5F4F2F0EEEDEBE9E8E6E4E3E1E0DEC9
:10128000DDDBDAD8D7D5D4D3D1D0CFCDCCCBCAC83B
:10129000C7C6C5C4C2C1C0BFBEBDBCBBBAB9B8B762
:1012A000B6B5B4B3B2B1B0AFAEADACABAAA9A8A855
:1012B000A7A6A5A4A3A3A2A1A09F9F9E9D9C9C9B23
:1012C0009A999998979796959594939392919190CE
:1012D0008F8F8E8E8D8C8C8B8B8A8989888887875F
:1012E0008685858484838382828181800000FF07D4
:1012F0000000F87F4FEA41034FEA5353A3F58063A0
:10130000D3F11E03C8BFD3F1210C0CDD4FF0004216
:1013100042EAC12242EA505232FA03FC8CEAE17CF2
:10132000ACEBE1707047102BC4BF0020704703F591
:10133000787CBCF1FF3F04D06FF0004282EA2100CC
:10134000704770B500F0B0F84992248000207047D3
:10135000F2E70000DFF848C170B51CEA111E1EBF9D
:101360001CEA13159EEA0C0F95EA0C0F00F06F8033
:1013700081EA030423EA4C134EEAD47E21EA4C119D
:1013800041F4801143F48013AE44A1FB024CA0FB56
:101390000365AEF17F7E361955EB0C05A1FB034CBE
:1013A0004CF10003A0FB021C16EB0C06654153F147
:1013B0000003094218BF46F0010613F4007F0BD169
:1013C0004FEA03314FEA0530340341EA155140EA50
:1013D00016506FF003020AE04FEAC3214FEAC5201E
:1013E000F40241EA555140EA56506FF0020202EB16
:1013F0002E4201EB025585EACE710AD05FEA440C19
:1014000018BF24F0004450F1000041F1000120EA2F
:10141000D47040F2FE7C624500D270BDA84214BF79
:101420004FF080444FF04044002E08BF0024BEF12E
:10143000806FA8BFA1F1C041BDE8704080F28280FA
:101440004FF0000001F1C04101F0004170479EEAF9
:101450000C0F0CEA131518BF95EA0C0F06D04FF0CD
:10146000000081EA030E0EF0004170BD00F01CF890
:101470008900013E00F007B800F009B84FEA430CBC
:101480005FEA5C5C08D081EA030100F05BB84FEAD8
:10149000410C5FEA5C5CF6D14FF0000001497047F7
:1014A0000000FF070000F87F0EF1020E2EF0030E81
:1014B0005EF8046B364205D4012A43EB030515F5AB
:1014C000001F12D8012841EB010C1CF5001F0CD89D
:1014D0000ED14FEAD17C15F5001F0CEB4C0C0CF132
:1014E000020C08BF4CEBD37C04E04FF0080C01E089
:1014F0004FEAD37C0CEB4C0526FA05F606F00706FE
:10150000B6F1040C06D20EEB860CBDE870404CF030
:10151000010C6047DFE80CF0090B02024FF00041BC
:101520004FF00000A1F5002170BD194610460128BA
:1015300051EB010418BFD4F5001484BF002001F062
:10154000004170BD0808A0F500114FEA3101704755
:1015500010B591EA030F48BF83F000433FF5D2ACCA
:10156000841A71EB030C07D212198CF0004C43EB78
:101570000C03001B61EB0C01DFF8A4E14FEA1154EE
:10158000A4EB135C1EEA430F18BF9EEA445F00F011
:10159000B08023EA6E03524221EA0451C3EB6E038A
:1015A00038BF5B1EDCF1200E25D322FA0CFE10EBB7
:1015B0000E0043FA0CFE41EB0E01CCF1200E03FAB3
:1015C0000EFE10EB0E0051F10001CCF1200E29D4DB
:1015D00012FA0EF201EB0451BDE8104058BF7047FB
:1015E000401C1CBFB2F1004F704700280CBF491CC3
:1015F00020F00100704712EB020E43EB030218BF0C
:101600004FF0010E4EEA4202ACF1200CDCF11E0E4E
:1016100054D943FA0CFE10EB0E0051F1FF31CCF11E
:101620001E0ED5D50EF1010E12FA0EFE404141EB11
:10163000010101EB445C5FEA5C5C10D910EBDE70E9
:1016400001EB045138BFBEF1004FBDE8104018BF98
:10165000704700280CBF491C20F00100704730D2B1
:101660004FEAD42C11F5001124F400641BD0B1FA18
:1016700081F20B3AA41AA41ED2F12003914030FA51
:1016800003F31943904001EBCC71002C01EB0451A2
:10169000BDE81040A8BF704701F1C0414FF0000005
:1016A00001F000417047B0FA80F310FA03F100D165
:1016B00010BDE41A173C4805C90AE4E701EB0451E0
:1016C00010BD491001EB0451BDE810404FEA300055
:1016D00002E04FF0000170474A0008BF0042F8D016
:1016E000B2F5001F28BF704701F000414FF0000025
:1016F00070479EEA445F07D011EA5E0FBDE81040D4
:1017000004BF002100207047BDE8104070B5FFF70E
:10171000CBFE00BF40DFF63E83F00041104670472D
:101720000000E0FF43004FEAD30C4FEA3C0C43407B
:101730001FBF40070CF1605113F0FE4F70471CF0C3
:10174000006F03D100200CF0004170470CF0004303
:1017500043EA507010B540EACC0000F022F800BF18
:10176000000000924FEA0001FFF7ECBE4FF000418D
:101770004FF00000A1F5002170470000B0FA80F39F
:1017800010FA03F2C3F19D030AD0D90501EB122030
:10179000530638BF704700F1010008BF20F0010078
:1017A00070470EF1020E2EF0030E5EF8044B244239
:1017B00004D44FEA4102B2F17F4F11D84FEA4003FF
:1017C000B3F17F4F0CD80ED14FEAD07CB2F17F4FEE
:1017D0000CEB4C0C0CF1020C08BF4CEBD17C04E080
:1017E0004FF0080C01E04FEAD17C0CEB4C0324FADB
:1017F00003F404F00704B4F1040C06D20EEB840CDD
:10180000BDE810404CF0010C6047DFE80CF0070821
:1018100002024FF00040A0F5800010BD08464200D3
:1018200018BFD2F1807288BF00F0004010BD0000E8
:1018300050180008000000201400000028010008D3
:101840006418000814000020640600004401000829
:101850000000000001020304010203040607080956
:041860000204060870
:04000005080001915D
:00000001FF
